:020000040800F2
:1000000000400020B1020008F9020008F9020008CF
:10001000F9020008F9020008F902000800000000D7
:10002000000000000000000000000000F9020008CD
:10003000F902000800000000F9020008F9020008B7
:10004000F9020008F9020008F9020008F9020008A4
:10005000F9020008F9020008F9020008F902000894
:10006000F9020008F9020008F9020008F902000884
:10007000F9020008F9020008F9020008F902000874
:10008000F9020008F9020008F9020008F902000864
:10009000F9020008F9020008F9020008F902000854
:1000A000F9020008F9020008F9020008F902000844
:1000B000F9020008F9020008F9020008F902000834
:1000C000F9020008F9020008F9020008F902000824
:1000D000F9020008F9020008F9020008F902000814
:1000E000F9020008F9020008F9020008F902000804
:1000F000F90200080000000000000000F9020008FA
:100100000000000000000000F9020008F9020008E9
:10011000F9020008F9020008F902000800000000D6
:10012000F9020008000000000000000000000000CC
:0C01300000000000000000005FF808F173
:10013C000348044B834202D0034B03B1184770476A
:10014C0000000020000000200000000005480649C7
:10015C00091A891001EBD171491002D0034B03B17C
:10016C00184770470000002000000020000000002D
:10017C0010B5064C237843B9FFF7DAFF044B13B1E3
:10018C000448AFF300800123237010BD0000002051
:10019C00000000004403000808B5054B1BB10549DD
:1001AC000548AFF30080BDE80840FFF7CFBF00BFA4
:1001BC00000000000400002044030008034B1868F2
:1001CC0080EA001080EA5000186070471C00002084
:1001DC002DE9F041294B1A6842F400621A609A68C2
:1001EC0042F440629A60DA6822F44062DA60244A8F
:1001FC00536A43F000535362224B1A6842F00102D7
:10020C001A601A6842F480321A6000252C4603E00A
:10021C001D4A136801331360002640F6FE739E429C
:10022C00F6D8FFF7CBFFB0FBF4F304FB1303700815
:10023C0004FB0030154FA7FB052300EB9300DFF800
:10024C004480C8F80800FFF7B9FFB0FBF4F304FBD7
:10025C0013039B1BC8F81430631CA7FB032464080E
:10026C0004EB44041C1B6B1C094DA5FB03252D0B37
:10027C0043F6982202FB15350136CEE7000002400A
:10028C0000380240007400401C000020ABAAAAAA4F
:10029C0073B2E745024B4FF000629A60704700BFA3
:1002AC0000ED00E0002103E00B4B5B5843500431A0
:1002BC000A480B4B42189A42F6D30A4A02E0002332
:1002CC0042F8043B084B9A42F9D3FFF7E3FF00F0E6
:1002DC000FF8FFF77DFF7047640300080000002053
:1002EC00000000200000002020000020FEE700009D
:1002FC0070B500260C4D0D4C641BA410A64209D100
:10030C0000F01AF800260A4D0A4C641BA410A642F1
:10031C0005D170BD55F8043B98470136EEE755F80A
:10032C00043B98470136F2E75C0300085C030008C5
:10033C005C03000860030008F8B500BFF8BC08BCFB
:10034C009E467047F8B500BFF8BC08BC9E46704787
:04035C00A5010008EF
:040360007D01000813
:04000005080002B13C
:00000001FF
